:020000040800F2
:10000000E8040020A101000839030008C902000823
:1000100035030008E9010008070800080000000097
:100020000000000000000000000000007D04000847
:10003000ED010008000000005103000895050008CC
:10004000BB010008BB010008BB010008BB010008A0
:10005000BB010008BB010008BB010008BB01000890
:10006000BB010008BB010008BB010008BB01000880
:10007000BB010008BB010008BB010008BB01000870
:10008000BB010008BB010008BB010008BB01000860
:10009000BB010008BB010008BB010008BB01000850
:1000A000BB010008BB010008BB010008BB01000840
:1000B000BB010008BB010008BB010008BB01000830
:1000C000BB010008BB010008BB010008BB01000820
:1000D000BB01000801060008BB010008BB010008C5
:1000E000BB010008BB010008BB010008BB01000800
:1000F000BB010008BB010008BB010008BB010008F0
:10010000BB010008BB010008BB010008BB010008DF
:10011000BB010008BB010008BB010008BB010008CF
:10012000BB010008BB010008BB010008BB010008BF
:10013000BB010008BB010008BB010008BB010008AF
:10014000BB010008BB010008BB010008BB0100089F
:10015000BB010008BB010008BB010008BB0100088F
:10016000BB010008BB010008BB010008BB0100087F
:10017000BB010008BB010008BB010008BB0100086F
:10018000BB010008BB010008DFF810D000F01AF82E
:100190000048004741090008AFF30080E804002050
:1001A0000648804706480047FEE7FEE7FEE7FEE711
:1001B000FEE7FEE7FEE7FEE7FEE7FEE7990500083B
:1001C00089010008064C074D06E0E06840F0010395
:1001D00094E8070098471034AC42F6D3FFF7D8FFF5
:1001E000080B0008280B000800BFFEE77047F0B5B9
:1001F0000A4600210023002400BF3DE0012505FA46
:1002000001F3156805EA03049C4234D105684F00E8
:100210000326BE40B543056015794E00B54006681B
:10022000354305601579012D02D01579022D16D1BF
:1002300085684F000326BE40B543856055794E0062
:10024000B540866835438560456801268E40B543D4
:100250004560456896798E40B6B235434560C568BD
:100260004F000326BE40B543C560D5794E00B5406A
:10027000C6683543C560491C1029BFD3F0BDF0B531
:10028000002300244D07ED0E02FA05F3CE1000F115
:10029000200555F826504E07F70E0F26BE40B543F1
:1002A000CF1000F1200646F82750CE1000F12005AF
:1002B00055F8265045EA0304CE1000F1200545F814
:1002C0002640F0BD0183704700BFFEE71CB5012149
:1002D000042000F03FF80420009000208DF8060074
:1002E00001208DF8040003208DF8050001208DF811
:1002F000070069460E48FFF77AFF04210C48FFF714
:10030000E1FF0820009000208DF8060001208DF804
:10031000040003208DF8050001208DF807006946D0
:100320000348FFF764FF08210148FFF7CBFF1CBD1E
:100330000008024000BFFEE7704700000249014389
:10034000024A1160704700000000FA050CED00E061
:100350007047000029B1064A12680243044B1A6034
:1003600004E0034A12688243014B1A6070470000A0
:100370003038024029B1064A12680243044B1A6021
:1003800004E0034A12688243014B1A607047000080
:1003900040380240F0B5002100220024022500264A
:1003A0000223324F3F6807F00C0121B1042905D028
:1003B000082937D105E02E4F076036E02D4F076042
:1003C00033E02A4F3F1F3F68C7F38056274F3F1F38
:1003D0003F6807F03F036EB1264FB7FBF3F7DFF836
:1003E0008CC0ACF1040CDCF800C0CCF3881C07FB1B
:1003F0000CF40CE01E4FB7FBF3F7DFF870C0ACF164
:10040000040CDCF800C0CCF3881C07FB0CF4174F7D
:100410003F1F3F68C7F301477F1C7D00B4FBF5F722
:10042000076002E0124F076000BF00BF0F4F3F6838
:1004300007F0F0010909104F7A5C0768D740476060
:100440000A4F3F6807F4E051890A0B4F7A5C47680E
:10045000D7408760054F3F6807F46041490B064F5E
:100460007A5C4768D740C760F0BD0000083802409A
:100470000024F40040787D01000000207047000057
:100480000CB50020019000903448006840F48030A2
:100490003249086000BF3148006800F40030009025
:1004A0000198401C0190009818B90198B0F5A04F30
:1004B000F1D12A48006800F4003010B1012000900A
:1004C00001E0002000900098012846D123484030E8
:1004D000006840F0805021494031086020480068A1
:1004E00040F440401E4908601C48083000681B4921
:1004F000083108600846006840F40040086008467B
:10050000006840F4A05008601648091F0860081FE2
:10051000006840F08070091F086000BF0F48006845
:1005200000F000700028F9D040F205700E49086014
:100530000A480830006820F00300084908310860C4
:100540000846006840F00200086000BF0348083019
:10055000006800F00C000828F8D10CBD00380240FB
:100560000070004019544007003C0240042808D1A4
:100570004FF0E021096941F004014FF0E0221161E0
:1005800007E04FF0E021096921F004014FF0E0227B
:10059000116170477047000010B51548006840F4BD
:1005A0007000134908601348006840F001001149C9
:1005B000086000200F49083108600E4800680E49A5
:1005C00008400C4908600D48091D0860081F0068B4
:1005D00020F48020091F0860002006490C310860C3
:1005E000FFF74EFF4FF0006001498039086010BDF1
:1005F00088ED00E000380240FFFFF6FE10300024D6
:1006000010B540F225511D4800F060F810B31B48AA
:1006100000F0F0F8C4B21A48008800F40040C8B9ED
:100620001748008800F4804060B10A2C03D00020F5
:100630001349088020E01248008840F40040104927
:10064000088019E00D2C06D10D48008840F4804048
:100650000B49088010E00A480088C0F30D000949E2
:100660000C5407480088401C05490880084600884B
:10067000C72801DD0020088010BD000000500040A8
:10068000140000201C00002001F40072B2F5007F6D
:1006900000D100BFCA430280704721B1828942F471
:1006A0000052828104E082894DF6FF731A408281F4
:1006B000704702460020B1F5007F00D100BF1388CB
:1006C0000B400BB1012000E00020704770B50246DE
:1006D000002400230025002040F66A16B14200D114
:1006E00000BFC1F3421501F01F03012606FA03F310
:1006F000012D02D19689334006E0022D02D1168ADF
:10070000334001E0968A33400C12012606FA04F4C5
:100710001688344013B10CB1012000E0002070BDF8
:100720002DE9FF4705460E460024A14600BFA0461E
:10073000B08900B100BF2C8A24F44054F0880443EF
:100740002C82AC8941F20C608443B0883189084323
:10075000718908430443AC81AC8A24F44074B089A5
:100760000443AC826846FFF715FE2048854202D05C
:100770001F48854202D1DDF80C9001E0DDF80890B9
:10078000A88900F4004040B109EBC90000EB091052
:1007900031684900B0FBF1F707E009EBC90000EB55
:1007A000091031688900B0FBF1F76420B7FBF0F065
:1007B00004012009642101FB1078A88900F400409D
:1007C00040B1322000EBC800B0FBF1F000F00700B0
:1007D000044308E0322000EB08106421B0FBF1F084
:1007E00000F00F0004432C81BDE8FF87001001409A
:1007F0000014014001468888C0F308007047C1F327
:1008000008028280704700BFFEE70000014A0249EB
:1008100000F013B81D0900081800002002E008C805
:10082000121F08C1002AFAD170477047002001E06A
:1008300001C1121F002AFBD170472DE9F041164675
:100840000F460446002503E03946B047641C6D1C82
:1008500020780028F8D12846BDE8F08110B504467C
:100860006FF00400FFF782FEE11704EB5171C1F352
:10087000C701074A11701046007800EB4001C1EB38
:10088000C0104FF6FF7101EAC0000249088010BD98
:10089000100000201200002070B504464FF40770CD
:1008A00094FBF0F0C6B24FF4077094FBF0F100FB3C
:1008B000114085B205E04FF4077000F009F8701E92
:1008C000C6B2002EF7D115B1284600F001F870BD70
:1008D0000146114A12884A434FF0E0235A61002230
:1008E0009A611A46126942F001021A6100BF4FF084
:1008F000E022106900F001021AB100F48032002AEF
:10090000F5D04FF0E022126922F001024FF0E0230F
:100910001A6100229A6170471200002070B50446E7
:100920000D4600BF40210548FFF7C3FE0028F9D05F
:10093000E1B20248FFF763FF204670BD001001409E
:1009400000244FF4A060FFF7F9FCA820FFF786FF12
:100950004FF4E13000F08CF8FFF7B8FC0020284994
:10096000086028A0FFF752FF49E02A48008800F4F9
:100970000040E0B12748067827A0FFF747FF002591
:100980000CE02A48405D2A49888000BF284800883A
:1009900000F040000028F9D0681CC5B2B542F0DB79
:1009A00024A0FFF733FF00201A49088027E0601CCD
:1009B00084B241F2883094FBF0F100FB114010B991
:1009C0001EA0FFF723FFC82094FBF0F100FB1140AD
:1009D00010B920A0FFF71AFF1E2094FBF0F100FBD6
:1009E000114048B90648001F006808B9012000E01E
:1009F00000200349091F08600A20FFF74DFFB4E7F4
:100A00008C024142CAB5D1E920BFAACABC200D0A56
:100A100000000000140000200D0A20B7A2CBCDB5C5
:100A2000C4CFFBCFA2CEAA3A0D0A00001C000020C2
:100A3000001001400D0A0D0A000000000D0A20D52B
:100A4000E2CAC7B4AEBFDACDA8D0C5CAB5D1E920D5
:100A50000D0A0000C7EBCAE4C8EBCAFDBEDD2CD20C
:100A6000D4BBD8B3B5BCFCBDE1CAF80D0A00000088
:100A700010B586B0044601210C20FFF76BFC012164
:100A80000805FFF777FC082202211C48FFF7F7FB57
:100A900008220C211A48FFF7F2FB41F204000490EF
:100AA00002208DF814008DF8150000208DF8160036
:100AB00001208DF8170004A91148FFF798FB04A93D
:100AC0000E48FFF794FB00940020ADF80400ADF849
:100AD0000600ADF80800ADF80C000C20ADF80A00D7
:100AE00069460848FFF71CFE01210648FFF7D5FDBF
:100AF00040210448FFF7C8FD06B010BD000C0240BD
:100B00000008024000500040280B000800000020B0
:100B10001C0000001C080008440B00081C000020FA
:100B2000CC0400002C0800080000000001020304AF
:100B3000010203040607080900000000000000008D
:040B400000000000B1
:040000050800018965
:00000001FF
