:020000040800F2
:1000000030050020A1010008E10A0008710A00087B
:10001000DD0A0008E90100082911000800000000BD
:10002000000000000000000000000000FD0D0008BE
:100030009509000800000000D10C0008150F000809
:10004000BB010008BB010008BB010008BB010008A0
:10005000BB010008BB010008BB010008BB01000890
:10006000BB010008BB010008BB010008BB01000880
:10007000BB010008BB010008BB010008BB01000870
:10008000BB010008BB010008BB010008BB01000860
:1000900051030008BB010008BB010008BB010008B8
:1000A000BB010008BB010008BB010008BB01000840
:1000B000BB010008BB010008BB010008BB01000830
:1000C000BB010008BB010008BB010008BB01000820
:1000D000BB010008BB010008BB010008BB01000810
:1000E000BB010008BB010008BB010008BB01000800
:1000F000BB010008BB010008BB010008BB010008F0
:10010000BB010008BB010008BB010008BB010008DF
:10011000BB010008810F0008BB010008BB010008FB
:10012000BB010008BB010008BB010008BB010008BF
:10013000BB010008BB010008BB010008BB010008AF
:10014000BB010008BB010008BB010008BB0100089F
:10015000BB010008BB010008BB010008BB0100088F
:10016000BB010008BB010008BB010008BB0100087F
:10017000BB010008BB010008BB010008BB0100086F
:10018000BB010008BB010008DFF810D000F01AF82E
:10019000004800470D120008AFF300803005002032
:1001A0000648804706480047FEE7FEE7FEE7FEE711
:1001B000FEE7FEE7FEE7FEE7FEE7FEE7190F0008B1
:1001C00089010008064C074D06E0E06840F0010395
:1001D00094E8070098471034AC42F6D3FFF7D8FFF5
:1001E000FC1300081C14000800BFFEE770B52DEDDD
:1001F000028B06460D46B0EE408AF0EE608A144649
:100200004FF40070494908600020087248720820C5
:100210008872ACB94648B0F9020000EE900AF8EED8
:10022000E00AB0EE600AF0EE480A304600F0A0FCAA
:10023000BDEEC00A10EE100A00B23E49088065E02B
:10024000012C63D13A48B0F9000000EE100AB8EE74
:10025000C00A9FED391AC0EE010A9FED380A20EE60
:10026000800A374880ED000A3148B0F90000304973
:10027000B1F90810401A10F57A6F05DA2C48408958
:10028000401C00B22A4948812948B0F90000284999
:10029000B1F90810401AB0F57A6F05DD244840899D
:1002A000401E00B222494881214840894FF4B47170
:1002B00010FB01F000EE100AB8EEC00A2048D0EDA5
:1002C000000A30EE200A1F4880ED000AF0EE680AAE
:1002D00090ED000A284600F04BFC1B4880ED000A18
:1002E0001348B0F9020000EE900AF8EEE00AB0EE12
:1002F000600A1548D0ED000A304600F039FCBDEE2A
:10030000C00A10EE100A00B20A49088009480088A5
:10031000000A0649C872074801780448017301467B
:100320000A4800F0A4FABDEC028B70BD0801002061
:10033000FC0000205600002000F8FF450000B443F8
:10034000580000205C0000205000002000640040A5
:1003500010B50221144800F0A7F8144A00211248F1
:1003600000F00DFA12480088114908810F48007BFF
:100370000E49C97A40EA012000B20D4908800B48B5
:10038000817B407B41EA002000B209494880074850
:10039000017CC07B41EA002000B205498880034807
:1003A000407C887110BD0000006400401C010020EA
:1003B000FC000020F0B58BB007460C4615461E46E3
:1003C0000121022000F086FC0121480600F092FC89
:1003D0004FF44070099002208DF8280000208DF81D
:1003E0002A0003208DF8290000208DF82B0009A990
:1003F0002B4800F0D0FA09220821294800F013FB0D
:1004000009221146264800F00EFB00208DF81E0040
:100410008DF81F008DF8200001208DF821000020AC
:100420008DF822008DF823008DF81A008DF81B70CE
:100430008DF81C508DF81D40ADF8186006A91948BC
:1004400000F013F900208DF812008DF81300012040
:100450008DF814000020ADF80800ADF80A00ADF8E2
:100460000C00ADF80E00ADF8100001208DF815005D
:1004700002A800F06DF8012202210A4800F0ECF811
:1004800014208DF8040000208DF805008DF806007A
:1004900001208DF8070001A800F024FB0BB0F0BD8F
:1004A0000004024000640040B1F5007F3AD00FDC48
:1004B000202928D006DC01291CD004291DD00829B8
:1004C00040D11DE0402921D0B1F5807F3AD126E00E
:1004D000B1F5004F31D006DCB1F5806F25D0B1F514
:1004E000006F2FD124E0B1F5803F12D0B1F5003F6D
:1004F00028D111E0154A826025E00822C26022E07E
:100500001022C2601FE0082202611CE0102202617A
:1005100019E00822426016E01022426013E0042233
:10052000426010E0042242600DE0042242600AE0D2
:10053000002282610422426005E0002282610422DE
:10054000426000E000BF00BF7047000001010100F1
:1005500010B50021837A012202FA03F13D4A1268A4
:1005600042F001023B4B1A603A4A1C3212688A433D
:10057000384B1C331A60027BCAB9364A0C321268F7
:100580008A43344B0C331A604288C38842EA0343DF
:10059000304A4032847A42F834300288838842EA12
:1005A00003432C4A4032847A02EBC4025360027B3C
:1005B000012A19D1274A0C3212680A43254B0C3301
:1005C0001A604288038842EA0343224A4032847A0E
:1005D00042F83430C288838842EA03431D4A4032DD
:1005E000847A02EBC4025360C27A3AB9194A121DE6
:1005F00012688A43174B1B1D1A6006E0154A121D2C
:1006000012680A43134B1B1D1A60028932B9114A42
:10061000143212688A430F4B14331A600289012A7C
:1006200006D10C4A143212680A430A4B14331A607A
:10063000427B012A06D1074A1C3212680A43054B45
:100640001C331A60034A126822F00102014B1A603F
:1006500010BD0000006600401AB143690B434361BE
:1006600002E043698B434361704730B50246002086
:100670000023146824F002041460146844F0010498
:10068000146000E05B1C546804F001041CB94FF6D0
:10069000FF74A342F6D1546804F001040CB90020A1
:1006A0006CE08C79012C04D1146844F0800414604F
:1006B00003E0146824F080041460CC79012C04D188
:1006C000146844F04004146003E0146824F040040B
:1006D00014600C7A012C04D1146844F020041460D6
:1006E00003E0146824F0200414604C7A012C04D137
:1006F000146844F01004146003E0146824F010043B
:1007000014608C7A012C04D1146844F0080414603D
:1007100003E0146824F008041460CC7A012C04D19E
:10072000146844F00404146003E0146824F0040422
:1007300014608C78A407CD7844EA05640D7944EA06
:1007400005444D7944EA05540D886D1E2C43D4614F
:10075000146824F001041460002300E05B1C54685A
:1007600004F001041CB14FF6FF74A342F6D15468A3
:1007700004F001040CB1002000E0012030BD10B5F0
:1007800000F5D87303EB01131B6803F00403137225
:10079000137A53B900F5D87303EB01131B6840F2C9
:1007A000FF7404EA5353136009E000F5D87303EBB8
:1007B00001131B686FF0604404EAD303536000F533
:1007C000D87303EB01131B6803F00203537200F5A7
:1007D000D87303EB01135B6803F00F03937200F50A
:1007E000D87303EB01135B681B0AD37400F5D8734D
:1007F00003EB01139B68D37200F5D87303EB01136D
:100800009B681C0A147300F5D87303EB01139B68F3
:100810001C0C547300F5D87303EB01139B681B0E7B
:10082000937300F5D87303EB0113DB68D37300F502
:10083000D87303EB0113DB681C0A147400F5D8733A
:1008400003EB0113DB681C0C547400F5D87303EB45
:100850000113DB681B0E937421B9C36843F02003B6
:10086000C36003E0036943F02003036110BD10B5CA
:1008700002460020936803F08063B3F1806F00D1DB
:1008800010E0936803F00063B3F1006F01D1012021
:1008900008E0936803F08053B3F1805F01D1022038
:1008A00000E00420042874D002F5C07303EB0013A9
:1008B0001B6803F0010402F5C07303EB00131C6016
:1008C0000B7A7BB94B7A0C8843EA445302F5C07427
:1008D00004EB00142468234302F5C07404EB0014F5
:1008E000236010E00B7A4C6843EAC4034C7A23433C
:1008F00002F5C07404EB00142468234302F5C074AD
:1009000004EB001423608B7A03F00F038B7202F563
:10091000C07303EB00135B6823F00F0402F5C07390
:1009200003EB00135C6002F5C07303EB00135B681C
:100930008C7A234302F5C07404EB001463608B7B54
:100940001C064B7B44EA03440B7B44EA0323CC7A2A
:10095000234302F5C07404EB0014A3608B7C1C06D7
:100960004B7C44EA03440B7C44EA0323CC7B2343C3
:1009700002F5C07404EB0014E36002F5C07303EBEE
:1009800000131B6843F0010402F5C07303EB00136E
:100990001C6010BD7047F0B50A46002100230024FA
:1009A00000BF3DE0012505FA01F3156805EA0304DF
:1009B0009C4234D105684F000326BE40B543056014
:1009C00015794E00B5400668354305601579012D4F
:1009D00002D01579022D16D185684F000326BE403E
:1009E000B543856055794E00B540866835438560CE
:1009F000456801268E40B5434560456896798E402E
:100A0000B6B235434560C5684F000326BE40B543C6
:100A1000C560D5794E00B540C6683543C560491CF0
:100A20001029BFD3F0BDF0B5002300244D07ED0E13
:100A300002FA05F3CE1000F1200555F826504E07B6
:100A4000F70E0F26BE40B543CF1000F1200646F842
:100A50002750CE1000F1200555F8265045EA030432
:100A6000CE1000F1200545F82640F0BD0183704707
:100A700000BFFEE71CB50121042000F02BF9042083
:100A8000009000208DF8060001208DF8040003205E
:100A90008DF8050001208DF8070069460E48FFF724
:100AA0007AFF04210C48FFF7E1FF082000900020A6
:100AB0008DF8060001208DF8040003208DF8050054
:100AC00001208DF8070069460348FFF764FF0821FD
:100AD0000148FFF7CBFF1CBD0008024000BFFEE746
:100AE0007047000070B5002100230F22C4781CB3AA
:100AF000174C246804F4E064C4F5E064C4F30721EF
:100B0000C1F10404E3B20A4144789C40E1B2847824
:100B1000144021430C07210E0E4C057861550478D2
:100B200004F01F050124AC4005786D11AD0005F1FE
:100B3000E025C5F8004109E0047804F01F05012410
:100B4000AC40054D0678761145F8264070BD000092
:100B50000CED00E000E400E080E100E00249014328
:100B6000024A1160704700000000FA050CED00E039
:100B7000B0EE401A90ED100A80ED110A90ED0F0AC8
:100B800080ED100AC0ED060A80ED071A30EEC10AAA
:100B900080ED0F0A90ED010AD0ED0F1A20EE210A28
:100BA00080ED090A90ED0A0AD0ED021A90ED0F2AA5
:100BB00001EE820A80ED0A0A90ED0D0A80ED0E0A20
:100BC00090ED0C0A80ED0D0A90ED0F0AD0ED101A91
:100BD00030EE610A80ED0C0A90ED030AD0ED0C1A9C
:100BE00020EE210A80ED0B0A90ED0A0AD0ED051ADD
:100BF000B4EEE10AF1EE10FA04DD90ED050A80EDA5
:100C00000A0A10E090ED0A0AD0ED051AF1EE611A19
:100C1000B4EEE10AF1EE10FA05D290ED050AB1EE5C
:100C2000400A80ED0A0A90ED090AD0ED0A1A30EE6A
:100C3000210AD0ED0B1A30EE210A80ED080A90ED62
:100C4000080AD0ED041AB4EEE10AF1EE10FA04DD60
:100C500090ED040A80ED080A10E090ED080AD0ED4E
:100C6000041AF1EE611AB4EEE10AF1EE10FA05D2BF
:100C700090ED040AB1EE400A80ED080A90ED080AF2
:100C800070470000017080ED010AC0ED020A80ED9E
:100C9000031AC0ED041A80ED052ADFED0C2AC0ED21
:100CA0000E2AC0ED0D2AC0ED0C2ADFED082AC0ED9A
:100CB000082AC0ED0B2AC0ED0A2AC0ED092AC0EDB2
:100CC000112AC0ED102AC0ED0F2A70470000000065
:100CD0007047000029B1064A12680243044B1A60AB
:100CE00004E0034A12688243014B1A607047000017
:100CF0003038024029B1064A12680243044B1A6098
:100D000004E0034A12688243014B1A6070470000F6
:100D100040380240F0B500210022002402250026C0
:100D20000223324F3F6807F00C0121B1042905D09E
:100D3000082937D105E02E4F076036E02D4F0760B8
:100D400033E02A4F3F1F3F68C7F38056274F3F1FAE
:100D50003F6807F03F036EB1264FB7FBF3F7DFF8AC
:100D60008CC0ACF1040CDCF800C0CCF3881C07FB91
:100D70000CF40CE01E4FB7FBF3F7DFF870C0ACF1DA
:100D8000040CDCF800C0CCF3881C07FB0CF4174FF4
:100D90003F1F3F68C7F301477F1C7D00B4FBF5F799
:100DA000076002E0124F076000BF00BF0F4F3F68AF
:100DB00007F0F0010909104F7A5C0768D7404760D7
:100DC0000A4F3F6807F4E051890A0B4F7A5C476885
:100DD000D7408760054F3F6807F46041490B064FD5
:100DE0007A5C4768D740C760F0BD00000838024011
:100DF0000024F40040787D01380000207047000096
:100E00000CB50020019000903448006840F4803018
:100E10003249086000BF3148006800F4003000909B
:100E20000198401C0190009818B90198B0F5A04FA6
:100E3000F1D12A48006800F4003010B10120009080
:100E400001E0002000900098012846D1234840305E
:100E5000006840F080502149403108602048006817
:100E600040F440401E4908601C48083000681B4997
:100E7000083108600846006840F4004008600846F1
:100E8000006840F4A05008601648091F0860081F59
:100E9000006840F08070091F086000BF0F480068BC
:100EA00000F000700028F9D040F205700E4908608B
:100EB0000A480830006820F003000849083108603B
:100EC0000846006840F00200086000BF0348083090
:100ED000006800F00C000828F8D10CBD0038024072
:100EE0000070004019544007003C0240042808D11B
:100EF0004FF0E021096941F004014FF0E022116157
:100F000007E04FF0E021096921F004014FF0E022F1
:100F1000116170477047000010B51548006840F433
:100F20007000134908601348006840F0010011493F
:100F3000086000200F49083108600E4800680E491B
:100F400008400C4908600D48091D0860081F00682A
:100F500020F48020091F0860002006490C31086039
:100F6000FFF74EFF4FF0006001498039086010BD67
:100F700088ED00E000380240FFFFF6FE103000244C
:100F800010B540F22551044800F014F818B1024899
:100F900000880148808810BD0050004021B182893E
:100FA00042F40052828104E082894DF6FF731A40B8
:100FB0008281704770B5024600240023002500207E
:100FC00040F66A16B14200D100BFC1F3421501F0EC
:100FD0001F03012606FA03F3012D02D1968933403F
:100FE00006E0022D02D1168A334001E0968A334092
:100FF0000C12012606FA04F41688344013B10CB121
:10100000012000E0002070BDF0B50346002400265A
:101010000025002040F66A17B94200D100BF1846EB
:10102000C1F3421401F01F06012707FA06F5012C4F
:1010300001D10C3004E0022C01D1103000E014305A
:101040001AB107682F43076002E00768AF430760E3
:10105000F0BD00002DE9FF4705460E460024A146DD
:1010600000BFA046B08900B100BF2C8A24F44054D0
:10107000F08804432C82AC8941F20C608443B08830
:1010800031890843718908430443AC81AC8A24F454
:101090004074B0890443AC826846FFF73BFE2048A9
:1010A000854202D01F48854202D1DDF80C9001E054
:1010B000DDF80890A88900F4004040B109EBC900B0
:1010C00000EB091031684900B0FBF1F707E009EBCC
:1010D000C90000EB091031688900B0FBF1F764200A
:1010E000B7FBF0F004012009642101FB1078A88906
:1010F00000F4004040B1322000EBC800B0FBF1F03A
:1011000000F00700044308E0322000EB08106421DF
:10111000B0FBF1F000F00F0004432C81BDE8FF8725
:10112000001001400014014000BFFEE702E008C8C3
:10113000121F08C1002AFAD170477047002001E051
:1011400001C1121F002AFBD17047000010B50446F0
:101150006FF00400FFF7CAFEE11704EB5171C1F311
:10116000C701074A11701046007800EB4001C1EB3F
:10117000C0104FF6FF7101EAC0000249088010BD9F
:10118000480000204A00002070B504464FF4077064
:1011900094FBF0F0C6B24FF4077094FBF0F100FB43
:1011A000114085B205E04FF4077000F009F8701E99
:1011B000C6B2002EF7D115B1284600F001F870BD77
:1011C0000146114A12884A434FF0E0235A61002237
:1011D0009A611A46126942F001021A6100BF4FF08B
:1011E000E022106900F001021AB100F48032002AF6
:1011F000F5D04FF0E022126922F001024FF0E02317
:101200001A6100229A6170474A000020A820FFF767
:101210009DFF4FF4A060FFF7A1FC9FED2F0A2F4820
:1012200080ED000A9FED2E0A2E4880ED000A4FF453
:10123000E13000F073F8FFF71DFC00202A49086038
:101240009FED2A2ADFED2A1A2A4890ED001A2A4833
:10125000D0ED000A294890ED000A00212848FFF748
:1012600011FD9FED282ADFED271A274890ED001A7F
:101270002648D0ED000A264890ED000A00212548B6
:10128000FFF700FD0323052206210020FFF792F857
:1012900021E00120FFF778FF1F480068401C1E492D
:1012A000086008460068B0F57A7F09D10020086020
:1012B0000D48006808B9012000E000200A490860D4
:1012C00001220848D0ED000A044890ED000A1149B7
:1012D0000B48FEF78BFFDCE70000FA441800002003
:1012E0000000B443140000208C02414200409C45A1
:1012F000000080462800002024000020200000205C
:101300006C00002000000046340000203000002067
:101310002C000020B40000200000002010B588B090
:10132000044601210D20FFF7D5FC01210805FFF738
:10133000E1FC082202212E48FFF775FB08220C2150
:101340002C48FFF770FB4FF48050069002208DF878
:101350001C008DF81D0000208DF81E0001208DF866
:101360001F0006A92348FFF716FB04200690022061
:101370008DF81C008DF81D0000208DF81E00012046
:101380008DF81F0006A91A48FFF705FB02940020FC
:10139000ADF80C00ADF80E00ADF81000ADF814007B
:1013A0000C20ADF8120002A91348FFF753FE0122EA
:1013B00040F225511048FFF727FE01210E48FFF7A4
:1013C000EDFD012240F225510B48FFF71DFE3520AF
:1013D0008DF8040002208DF805008DF8060001202C
:1013E0008DF8070001A8FFF77DFB08B010BD0000D5
:1013F000000C024000080240005000401C1400088D
:1014000000000020600000002C1100087C1400087F
:1014100060000020D00400003C1100080000000023
:1014200000000000000000000000000001000000BB
:1014300000000000000000000000000000007041FB
:10144000A69B443B0000803F0000204100000000BC
:101450000000000000000000010203040102030478
:10146000060708090000000000000000000000005E
:0C14700000000000000000000000000070
:040000050800018965
:00000001FF
