:020000040800F2
:1000000058040020A1010008270800081D07000867
:1000100023080008E90100081D0D00080000000089
:10002000000000000000000000000000E1090008DE
:100030004106000800000000B5080008F90A0008A1
:10004000BB010008BB010008BB010008BB010008A0
:10005000BB010008BB010008BB010008BB01000890
:10006000BB010008BB010008BB010008BB01000880
:10007000BB010008BB010008BB010008BB01000870
:10008000BB010008BB010008BB010008BB01000860
:10009000ED010008BB010008BB010008BB0100081E
:1000A000BB010008BB010008BB010008BB01000840
:1000B000BB010008BB010008BB010008BB01000830
:1000C000BB010008BB010008BB010008BB01000820
:1000D000BB010008BB010008BB010008BB01000810
:1000E000BB010008BB010008BB010008BB01000800
:1000F000BB010008BB010008BB010008BB010008F0
:10010000BB010008BB010008BB010008BB010008DF
:10011000BB010008650B0008BB010008BB0100081B
:10012000BB010008BB010008BB010008BB010008BF
:10013000BB010008BB010008BB010008BB010008AF
:10014000BB010008BB010008BB010008BB0100089F
:10015000BB010008BB010008BB010008BB0100088F
:10016000BB010008BB010008BB010008BB0100087F
:10017000BB010008BB010008BB010008BB0100086F
:10018000BB010008BB010008DFF810D000F01AF82E
:1001900000480047010E0008AFF30080580400201B
:1001A0000648804706480047FEE7FEE7FEE7FEE711
:1001B000FEE7FEE7FEE7FEE7FEE7FEE7FD0A0008D2
:1001C00089010008064C074D06E0E06840F0010395
:1001D00094E8070098471034AC42F6D3FFF7D8FFF5
:1001E000E00F00080010000800BFFEE710B5022174
:1001F000144800F02DF8144A0021124800F07CF851
:1002000012480088114908810F48007B0E49C97ABD
:1002100040EA012000B20D4908800B48817B407BF9
:1002200041EA002000B2094948800748017CC07BB0
:1002300041EA002000B2054988800348407C88716B
:1002400010BD000000640040440000202400002095
:10025000B1F5007F3AD00FDC202928D006DC012937
:100260001CD004291DD0082940D11DE0402921D0EF
:10027000B1F5807F3AD126E0B1F5004F31D006DCF0
:10028000B1F5806F25D0B1F5006F2FD124E0B1F525
:10029000803F12D0B1F5003F28D111E0154A8260AD
:1002A00025E00822C26022E01022C2601FE008227E
:1002B00002611CE01022026119E00822426016E08F
:1002C0001022426013E00422426010E004224260E7
:1002D0000DE0042242600AE00022826104224260B2
:1002E00005E0002282610422426000E000BF00BFFE
:1002F000704700000101010010B500F5D87303EB51
:1003000001131B6803F004031372137A53B900F549
:10031000D87303EB01131B6840F2FF7404EA5353D4
:10032000136009E000F5D87303EB01131B686FF04D
:10033000604404EAD303536000F5D87303EB011360
:100340001B6803F00203537200F5D87303EB01132B
:100350005B6803F00F03937200F5D87303EB01138E
:100360005B681B0AD37400F5D87303EB01139B6819
:10037000D37200F5D87303EB01139B681C0A147346
:1003800000F5D87303EB01139B681C0C547300F544
:10039000D87303EB01139B681B0E937300F5D8739E
:1003A00003EB0113DB68D37300F5D87303EB011380
:1003B000DB681C0A147400F5D87303EB0113DB68C7
:1003C0001C0C547400F5D87303EB0113DB681B0E8F
:1003D000937421B9C36843F02003C36003E0036949
:1003E00043F02003036110BD0246094B9A4201D23B
:1003F000084801E00648103801F000531BB1064BD5
:100400000B40C36002E0044B0B4083607047000068
:1004100010640240006002407D0F7D0F21B1026830
:1004200042F00102026003E0026822F00102026071
:1004300070470000016821F00101016000210160A6
:1004400041608160C1600161212141614A49884266
:1004500004D13D21484A103A91608CE04649183158
:10046000884205D14FF47461434A103A916082E0AA
:1004700041493031884205D14FF474113E4A103A57
:10048000916078E03C494831884205D14FF0746171
:10049000394A103A91606EE037496031884204D1A0
:1004A0003649354A103AD16065E03349783188429F
:1004B00004D13349304A103AD1605CE02E49903182
:1004C000884204D12F492C4A103AD16053E02A497E
:1004D000A831884205D14FF03D51274A103AD160EA
:1004E00049E02949884204D13D21274A083A116050
:1004F00041E025491831884205D14FF47461224A00
:10050000083A116037E020493031884205D14FF474
:1005100074111D4A083A11602DE01B494831884288
:1005200005D14FF07461184A083A116023E016496A
:100530006031884204D11149134A121F11601AE038
:1005400011497831884204D10D490F4A121F1160B8
:1005500011E00D499031884204D10A490A4A121F1C
:10056000116008E00849A831884204D14FF03D519C
:10057000054A121F11607047106002403D000020C4
:10058000400F002000003D20106402400146002082
:100590000A6802F001020AB1012000E00020704761
:1005A00030B503460A46002000240B4DAB4201D271
:1005B0000A4901E00849103902F000550DB14C68B4
:1005C00000E00C68064D2C4004EA02050DB1012044
:1005D00000E0002030BD00001064024000600240D6
:1005E0007D0F7D0F10B500220268134B1A40CC68B6
:1005F0000B6823434C6923438C692343CC69234311
:100600000C6A23434C6A23438C6A23434C6B234379
:100610008C6B23431A430260426922F00702D1E93E
:100620000B3423431A4342610B6943604B68836078
:100630008B68C36010BD00003F801CF041607047B4
:100640007047F0B50A4600210023002400BF3DE0BA
:10065000012505FA01F3156805EA03049C4234D12B
:1006600005684F000326BE40B543056015794E006E
:10067000B5400668354305601579012D02D015791E
:10068000022D16D185684F000326BE40B543856014
:1006900055794E00B540866835438560456801262A
:1006A0008E40B5434560456896798E40B6B2354375
:1006B0004560C5684F000326BE40B543C560D57987
:1006C0004E00B540C6683543C560491C1029BFD3EC
:1006D000F0BDF0B5002300244D07ED0E02FA05F33E
:1006E000CE1000F1200555F826504E07F70E0F26C4
:1006F000BE40B543CF1000F1200646F82750CE107B
:1007000000F1200555F8265045EA0304CE1000F10B
:10071000200545F82640F0BD0183704700BFFEE785
:100720001CB50121042000F0C7F80420009000202F
:100730008DF8060001208DF8040003208DF80500D7
:1007400001208DF8070069460E48FFF77AFF042163
:100750000C48FFF7E1FF0820009000208DF806000C
:1007600001208DF8040003208DF8050001208DF88C
:10077000070069460348FFF764FF08210148FFF7B7
:10078000CBFF1CBD000802402DE9F04190B00746A8
:100790000C4615461E46DDF858800121480500F03C
:1007A0008BF83846FFF746FE00BF3846FFF7EEFEEF
:1007B0000028FAD101940295039640200490CDF8C8
:1007C0001480002006904FF480600790002008906D
:1007D00009900A904FF480300B9000200C90032079
:1007E0000D9000200E900F9001A93846FFF7FAFEF9
:1007F00010B0BDE8F08170B504460D4600212046DA
:10080000FFF70CFE00BF2046FFF7C0FE0028FAD11C
:1008100029462046FFF712FF01212046FFF7FEFD83
:1008200070BD00BFFEE7704770B5002100230F22A6
:10083000C4781CB3174C246804F4E064C4F5E06485
:10084000C4F30721C1F10404E3B20A4144789C4097
:10085000E1B28478144021430C07210E0E4C057838
:100860006155047804F01F050124AC4005786D1132
:10087000AD0005F1E025C5F8004109E0047804F079
:100880001F050124AC40054D0678761145F8264039
:1008900070BD00000CED00E000E400E080E100E04D
:1008A00002490143024A1160704700000000FA0546
:1008B0000CED00E07047000029B1064A12680243BF
:1008C000044B1A6004E0034A12688243014B1A6029
:1008D000704700003038024029B1064A12680243CE
:1008E000044B1A6004E0034A12688243014B1A6009
:1008F0007047000040380240F0B50021002200247B
:10090000022500260223324F3F6807F00C0121B177
:10091000042905D0082937D105E02E4F076036E0BD
:100920002D4F076033E02A4F3F1F3F68C7F38056C3
:10093000274F3F1F3F6807F03F036EB1264FB7FBBD
:10094000F3F7DFF88CC0ACF1040CDCF800C0CCF39A
:10095000881C07FB0CF40CE01E4FB7FBF3F7DFF825
:1009600070C0ACF1040CDCF800C0CCF3881C07FBB1
:100970000CF4174F3F1F3F68C7F301477F1C7D00F2
:10098000B4FBF5F7076002E0124F076000BF00BF3D
:100990000F4F3F6807F0F0010909104F7A5C0768B4
:1009A000D74047600A4F3F6807F4E051890A0B4F70
:1009B0007A5C4768D7408760054F3F6807F460411D
:1009C000490B064F7A5C4768D740C760F0BD00000E
:1009D000083802400024F40040787D010000002027
:1009E000704700000CB5002001900090344800686A
:1009F00040F480303249086000BF3148006800F49C
:100A0000003000900198401C0190009818B901989E
:100A1000B0F5A04FF1D12A48006800F4003010B1C1
:100A20000120009001E0002000900098012846D1AC
:100A300023484030006840F0805021494031086030
:100A40002048006840F440401E4908601C480830B7
:100A500000681B49083108600846006840F40040FF
:100A600008600846006840F4A05008601648091F56
:100A70000860081F006840F08070091F086000BF10
:100A80000F48006800F000700028F9D040F20570AF
:100A90000E4908600A480830006820F00300084941
:100AA000083108600846006840F00200086000BF96
:100AB00003480830006800F00C000828F8D10CBD8D
:100AC000003802400070004019544007003C0240CA
:100AD000042808D14FF0E021096941F004014FF0EA
:100AE000E022116107E04FF0E021096921F00401E3
:100AF0004FF0E022116170477047000010B51548B3
:100B0000006840F47000134908601348006840F022
:100B100001001149086000200F49083108600E48A3
:100B200000680E4908400C4908600D48091D08601E
:100B3000081F006820F48020091F08600020064973
:100B40000C310860FFF74EFF4FF00060014980391B
:100B5000086010BD88ED00E000380240FFFFF6FE9F
:100B60001030002410B540F22551044800F01DF863
:100B700018B1024800880148808810BD005000402C
:100B800021B1828942F40052828104E082894DF6CB
:100B9000FF731A40828170471AB1838A0B438382A4
:100BA00002E0838A8B438382704770B5024600243B
:100BB00000230025002040F66A16B14200D100BF94
:100BC000C1F3421501F01F03012606FA03F3012DBC
:100BD00002D19689334006E0022D02D1168A3340B5
:100BE00001E0968A33400C12012606FA04F41688B6
:100BF000344013B10CB1012000E0002070BDF0B50D
:100C00000346002400260025002040F66A17B9425A
:100C100000D100BF1846C1F3421401F01F0601279E
:100C200007FA06F5012C01D10C3004E0022C01D1A9
:100C3000103000E014301AB107682F43076002E05B
:100C40000768AF430760F0BD2DE9FF4705460E4634
:100C50000024A14600BFA046B08900B100BF2C8A85
:100C600024F44054F08804432C82AC8941F20C6097
:100C70008443B08831890843718908430443AC81B7
:100C8000AC8A24F44074B0890443AC826846FFF710
:100C900033FE2048854202D01F48854202D1DDF84C
:100CA0000C9001E0DDF80890A88900F4004040B104
:100CB00009EBC90000EB091031684900B0FBF1F7FE
:100CC00007E009EBC90000EB091031688900B0FBAF
:100CD000F1F76420B7FBF0F004012009642101FB67
:100CE0001078A88900F4004040B1322000EBC80021
:100CF000B0FBF1F000F00700044308E0322000EB05
:100D000008106421B0FBF1F000F00F0004432C81C7
:100D1000BDE8FF87001001400014014000BFFEE75E
:100D200002E008C8121F08C1002AFAD170477047B4
:100D3000002001E001C1121F002AFBD17047000012
:100D400010B504466FF00400FFF7C2FEE11704EB94
:100D50005171C1F3C701074A11701046007800EBCA
:100D60004001C1EBC0104FF6FF7101EAC00002491B
:100D7000088010BD100000201200002070B504464D
:100D80004FF4077094FBF0F0C6B24FF4077094FB79
:100D9000F0F100FB114085B205E04FF4077000F060
:100DA00009F8701EC6B2002EF7D115B1284600F022
:100DB00001F870BD0146114A12884A434FF0E02302
:100DC0005A6100229A611A46126942F001021A61C0
:100DD00000BF4FF0E022106900F001021AB100F4E8
:100DE0008032002AF5D04FF0E022126922F0010291
:100DF0004FF0E0231A6100229A6170471200002030
:100E000008B5002500264FF4A060FFF749FDA82093
:100E1000FFF796FF4FF4E13000F06CF8FFF780FC2D
:100E20000D202E4B2E4A510600902E48FFF7ACFCA9
:100E30000B27002416E0BD420BDB26B10A20274910
:100E4000085500250CE00D2024490855701CC6B239
:100E500006E000262448405D20490855681CC5B2BC
:100E6000601C84B20D2CE6DB0020204908604FF4A2
:100E7000FA70FFF783FF01201D49C1F88C0200249E
:100E80002BE04FF47A70FFF779FF0122802114489C
:100E9000001FFFF781FE0D211248FFF7ACFC0BE0AD
:100EA0004FF020510F48FFF77BFB28B14FF0205146
:100EB0000C48FFF799FA00E0F2E700BF601C84B22B
:100EC000052C0AD10948001F006808B9012000E07C
:100ED00000200649091F08600024D2E71400002002
:100EE00004500040B8600240D40F00088C02414218
:100EF0000000414210B588B0044601210D20FFF7E3
:100F0000DBFC01210805FFF7E7FC082202212E483F
:100F1000FFF7DFFB08220C212C48FFF7DAFB4FF428
:100F20008050069002208DF81C008DF81D000020D6
:100F30008DF81E0001208DF81F0006A92348FFF739
:100F400080FB0420069002208DF81C008DF81D0007
:100F500000208DF81E0001208DF81F0006A91A48F8
:100F6000FFF76FFB02940020ADF80C00ADF80E0007
:100F7000ADF81000ADF814000C20ADF8120002A975
:100F80001348FFF761FE012240F225511048FFF798
:100F900036FE01210E48FFF7F3FD012240F22551F4
:100FA0000B48FFF72CFE35208DF8040002208DF849
:100FB00005008DF8060001208DF8070001A8FFF755
:100FC00033FC08B010BD0000000C024000080240D5
:100FD000005000407A796879206E62210A0D000085
:100FE000001000080000002014000000200D000880
:100FF000141000081400002044040000300D000804
:1010000000000000010203040102030406070809AE
:0410100000000000DC
:040000050800018965
:00000001FF
